{
  "_format": "hh-sol-artifact-1",
  "contractName": "BuyMeCoffee",
  "sourceName": "contracts/BuyMeCoffee.sol",
  "abi": [
    {
      "inputs": [],
      "stateMutability": "nonpayable",
      "type": "constructor"
    },
    {
      "anonymous": false,
      "inputs": [
        {
          "indexed": true,
          "internalType": "address",
          "name": "from_address",
          "type": "address"
        },
        {
          "indexed": false,
          "internalType": "uint256",
          "name": "time_stamp",
          "type": "uint256"
        },
        {
          "indexed": false,
          "internalType": "string",
          "name": "name",
          "type": "string"
        },
        {
          "indexed": false,
          "internalType": "string",
          "name": "message",
          "type": "string"
        }
      ],
      "name": "NewMemo",
      "type": "event"
    },
    {
      "inputs": [
        {
          "internalType": "string",
          "name": "_name",
          "type": "string"
        },
        {
          "internalType": "string",
          "name": "_messsage",
          "type": "string"
        }
      ],
      "name": "BuyCoffee",
      "outputs": [],
      "stateMutability": "payable",
      "type": "function"
    },
    {
      "inputs": [],
      "name": "getMemos",
      "outputs": [
        {
          "components": [
            {
              "internalType": "address",
              "name": "from_address",
              "type": "address"
            },
            {
              "internalType": "uint256",
              "name": "time_stamp",
              "type": "uint256"
            },
            {
              "internalType": "string",
              "name": "name",
              "type": "string"
            },
            {
              "internalType": "string",
              "name": "message",
              "type": "string"
            }
          ],
          "internalType": "struct BuyMeCoffee.memo[]",
          "name": "",
          "type": "tuple[]"
        }
      ],
      "stateMutability": "view",
      "type": "function"
    },
    {
      "inputs": [],
      "name": "withdraw",
      "outputs": [],
      "stateMutability": "nonpayable",
      "type": "function"
    }
  ],
  "bytecode": "0x608060405234801561001057600080fd5b50336000806101000a81548173ffffffffffffffffffffffffffffffffffffffff021916908373ffffffffffffffffffffffffffffffffffffffff160217905550610aa8806100606000396000f3fe6080604052600436106100345760003560e01c80633ccfd60b14610039578063865c517214610050578063a41fd4fb1461007b575b600080fd5b34801561004557600080fd5b5061004e610097565b005b34801561005c57600080fd5b506100656100f7565b6040516100729190610724565b60405180910390f35b6100956004803603810190610090919061088f565b6102da565b005b60008054906101000a900473ffffffffffffffffffffffffffffffffffffffff1673ffffffffffffffffffffffffffffffffffffffff166108fc479081150290604051600060405180830381858888f193505050506100f557600080fd5b565b60606001805480602002602001604051908101604052809291908181526020016000905b828210156102d157838290600052602060002090600402016040518060800160405290816000820160009054906101000a900473ffffffffffffffffffffffffffffffffffffffff1673ffffffffffffffffffffffffffffffffffffffff1673ffffffffffffffffffffffffffffffffffffffff168152602001600182015481526020016002820180546101ae90610936565b80601f01602080910402602001604051908101604052809291908181526020018280546101da90610936565b80156102275780601f106101fc57610100808354040283529160200191610227565b820191906000526020600020905b81548152906001019060200180831161020a57829003601f168201915b5050505050815260200160038201805461024090610936565b80601f016020809104026020016040519081016040528092919081815260200182805461026c90610936565b80156102b95780601f1061028e576101008083540402835291602001916102b9565b820191906000526020600020905b81548152906001019060200180831161029c57829003601f168201915b5050505050815250508152602001906001019061011b565b50505050905090565b6000341161031d576040517f08c379a0000000000000000000000000000000000000000000000000000000008152600401610314906109c5565b60405180910390fd5b600160405180608001604052803373ffffffffffffffffffffffffffffffffffffffff16815260200142815260200184815260200183815250908060018154018082558091505060019003906000526020600020906004020160009091909190915060008201518160000160006101000a81548173ffffffffffffffffffffffffffffffffffffffff021916908373ffffffffffffffffffffffffffffffffffffffff1602179055506020820151816001015560408201518160020190805190602001906103ec929190610462565b506060820151816003019080519060200190610409929190610462565b5050503373ffffffffffffffffffffffffffffffffffffffff167fc56140e05f516509ae28110e0f72e17558a7561630dad2647c3ae87d986e365c42848460405161045693929190610a2d565b60405180910390a25050565b82805461046e90610936565b90600052602060002090601f01602090048101928261049057600085556104d7565b82601f106104a957805160ff19168380011785556104d7565b828001600101855582156104d7579182015b828111156104d65782518255916020019190600101906104bb565b5b5090506104e491906104e8565b5090565b5b808211156105015760008160009055506001016104e9565b5090565b600081519050919050565b600082825260208201905092915050565b6000819050602082019050919050565b600073ffffffffffffffffffffffffffffffffffffffff82169050919050565b600061055c82610531565b9050919050565b61056c81610551565b82525050565b6000819050919050565b61058581610572565b82525050565b600081519050919050565b600082825260208201905092915050565b60005b838110156105c55780820151818401526020810190506105aa565b838111156105d4576000848401525b50505050565b6000601f19601f8301169050919050565b60006105f68261058b565b6106008185610596565b93506106108185602086016105a7565b610619816105da565b840191505092915050565b600060808301600083015161063c6000860182610563565b50602083015161064f602086018261057c565b506040830151848203604086015261066782826105eb565b9150506060830151848203606086015261068182826105eb565b9150508091505092915050565b600061069a8383610624565b905092915050565b6000602082019050919050565b60006106ba82610505565b6106c48185610510565b9350836020820285016106d685610521565b8060005b8581101561071257848403895281516106f3858261068e565b94506106fe836106a2565b925060208a019950506001810190506106da565b50829750879550505050505092915050565b6000602082019050818103600083015261073e81846106af565b905092915050565b6000604051905090565b600080fd5b600080fd5b600080fd5b600080fd5b7f4e487b7100000000000000000000000000000000000000000000000000000000600052604160045260246000fd5b61079c826105da565b810181811067ffffffffffffffff821117156107bb576107ba610764565b5b80604052505050565b60006107ce610746565b90506107da8282610793565b919050565b600067ffffffffffffffff8211156107fa576107f9610764565b5b610803826105da565b9050602081019050919050565b82818337600083830152505050565b600061083261082d846107df565b6107c4565b90508281526020810184848401111561084e5761084d61075f565b5b610859848285610810565b509392505050565b600082601f8301126108765761087561075a565b5b813561088684826020860161081f565b91505092915050565b600080604083850312156108a6576108a5610750565b5b600083013567ffffffffffffffff8111156108c4576108c3610755565b5b6108d085828601610861565b925050602083013567ffffffffffffffff8111156108f1576108f0610755565b5b6108fd85828601610861565b9150509250929050565b7f4e487b7100000000000000000000000000000000000000000000000000000000600052602260045260246000fd5b6000600282049050600182168061094e57607f821691505b6020821081141561096257610961610907565b5b50919050565b600082825260208201905092915050565b7f436f666665657320646f6e7420636f6d6520666f722066726565212100000000600082015250565b60006109af601c83610968565b91506109ba82610979565b602082019050919050565b600060208201905081810360008301526109de816109a2565b9050919050565b6109ee81610572565b82525050565b60006109ff8261058b565b610a098185610968565b9350610a198185602086016105a7565b610a22816105da565b840191505092915050565b6000606082019050610a4260008301866109e5565b8181036020830152610a5481856109f4565b90508181036040830152610a6881846109f4565b905094935050505056fea26469706673582212209bbae8f7bb805bd690dccf3395b2428f9133ad0ebe6b8f112f5aee5d73f0876064736f6c63430008090033",
  "linkReferences": {},
  "deployedLinkReferences": {}
}